:020000040800F2
:10000000E0E0001075020008E11E0008610200082F
:100010007D1E0008D90900081938000800000000FA
:10002000000000000000000000000000DD330008B8
:10003000BF0E00080000000075210008C53400084C
:100040008F0200088F0200088F0200088F0200084C
:100050008F0200088F0200088F0200088F0200083C
:100060008F0200088F0200088F0200088F0200082C
:100070008F0200088F0200088F0200083D0C000864
:100080008F0200088F0200088F0200088F0200080C
:100090008F0200088F0200088F0200088F020008FC
:1000A0008F0200088F0200088F0200088F020008EC
:1000B0008F0200088F0200088F0200088F020008DC
:1000C0008F0200088F0200088F0200088F020008CC
:1000D0008F020008BD3600088F0200088F0200085A
:1000E0008F0200088F0200088F0200088F020008AC
:1000F0008F0200088F0200088F0200088F0200089C
:100100008F020008412500088F0200088F020008B6
:100110008F0200088F0200088F0200088F0200087B
:100120008F0200088F0200088F020008410C0008AF
:100130008F0200088F0200088F0200088F0200085B
:100140008F0200088F0200088F0200088F0200084B
:100150008F0200088F0200088F0200088F0200083B
:100160008F0200088F0200088F0200088F0200082B
:100170008F0200088F0200088F0200088F0200081B
:100180008F0200088F020008DFF810D000F010F98D
:100190000048004789550008AFF30080E0E00010F8
:1001A0002C4B19680868B0E8F04F80F30988BFF35A
:1001B0006F8F4FF0000080F311887047000000003F
:1001C00008480068006880F308884FF0000080F35A
:1001D000148862B661B6BFF34F8FBFF36F8F00DF35
:1001E00000BF00BF08ED00E0DFF80C00016841F43B
:1001F00070010160704700BF88ED00E0EFF30980F7
:10020000BFF36F8F134B1A681EF0100F08BF20ED5D
:10021000108A20E9F04F106009B44FF0500080F3CD
:100220001188BFF34F8FBFF36F8F06F031FD4FF092
:10023000000080F3118809BC19680868B0E8F04F25
:100240001EF0100F08BFB0EC108A80F30988BFF3CE
:100250006F8F704758800010EFF3058070470000E3
:100260001EF0040F0CBFEFF30880EFF3098001F0DC
:1002700023B900000648804706480047FEE7FEE72E
:10028000FEE7FEE7FEE7FEE7FEE7FEE7FEE7FEE746
:10029000D9340008890100082DE9F05F05460020E7
:1002A00092469B4688460646814640241BE02846E7
:1002B00041464746224600F06AF853465A46C01A5D
:1002C000914110D311461846224600F051F82D1ADC
:1002D00067EB01084F4622460120002100F048F854
:1002E00017EB00094E41201EA4F10104DFDC484653
:1002F00031462A464346BDE8F09F40EA01039B078A
:1003000003D009E008C9121F08C0042AFAD203E08A
:1003100011F8013B00F8013B521EF9D27047D2B2EE
:1003200001E000F8012B491EFBD270470022F6E7DE
:1003300010B513460A4604461946FFF7F0FF20465B
:1003400010BDCAB2401E10F8011F8A4202D0002917
:10035000F9D10020704730B504460020034600E084
:100360005B1C934203D2E05CCD5C401BF8D030BDF7
:10037000202A04DB203A00FA02F100207047914065
:10038000C2F1200320FA03F3194390407047202A5A
:1003900004DB203A21FA02F00021704721FA02F32F
:1003A000D040C2F120029140084319467047000036
:1003B000064C074D06E0E06840F0010394E80700B2
:1003C00098471034AC42F6D3FFF7E2FEE42303086B
:1003D0001424030870B58C1810F8015B15F007039E
:1003E00001D110F8013B2A1106D110F8012B03E0CE
:1003F00010F8016B01F8016B5B1EF9D12B0705D4D6
:100400000023521E0DD401F8013BFAE710F8013B1E
:10041000CB1A921C03E013F8015B01F8015B521E3A
:10042000F9D5A142D8D3002070BD00000EB5104907
:10043000086A002801D14AF64440009091F824004F
:1004400000B902208DF8040091F8250000B91020B1
:100450008DF80500C869ADF80600898AADF8081066
:1004600000B101208DF80A00684600F079FA0EBD4F
:10047000A0DC001002490148C86070473D00002020
:100480000060024010B50A4C61680A48014203D07E
:10049000E060002000F0FCF8606806491031084276
:1004A00005D0E160BDE81040012000F0F1B810BDBA
:1004B000006002401000002070B590B00121480596
:1004C00001F0A0FE1D4E304600F0DEFB01A800F05A
:1004D000E5FC002401941A4802901A480390402039
:1004E0000490C10105910694000107904000089016
:1004F0000991C0100A904FF440300B900C940125E4
:100500000D950E940F9401A9304600F09BFC01223A
:100510001821304600F07CFC0F208DF800000620EA
:100520008DF801008DF802408DF80350684601F007
:10053000F5FCFFF79FFF10B070BD00007060024037
:100540000C3800400000002010B5FFF793FF06496B
:100550004FF40050486704480121703000F088FBD8
:1005600002490120087010BD006002404C8000105C
:1005700070B5064D4FF400442C600021044800F093
:1005800077FBFFF777FF45F8804C70BD80E100E016
:100590007060024070B500281DD002291BD34C08A2
:1005A000054606F043FA0C494A7882B9087850B1FA
:1005B0000A488068C0F58041A14208D321462846F8
:1005C00000F03AF803E02146284600F037F9BDE88C
:1005D000704006F039BA70BD4C800010CC8200101B
:1005E0002DE9F04180460C46114F3D68C5F5804627
:1005F0001048B44206D800EB450162004046FFF7C0
:100600007CFE0CE000EB450172004046FFF775FEF2
:10061000A01B420008EB46000649FFF76EFE2819B2
:10062000C0F30D003860B868001BB860BDE8F08109
:10063000CC820010000000102DE9F04180460C46ED
:10064000114F7D68C5F580461048B44206D8620057
:1006500000EB45004146FFF750FE0CE0720000EB56
:1006600045004146FFF749FEA01B420008EB46014A
:100670000648FFF742FE2819C0F30D007860B868FD
:100680002044B860BDE8F081CC820010000000106A
:1006900070B5104901EB40350F4884684FF480561F
:1006A000B44200D9344621462846FFF799FFB442A8
:1006B0000FD21CB1601E35F8100004E0002002E0EB
:1006C00025F81400641CB442FAD304484168491C5C
:1006D000416070BD00000020CC8200104C800010F2
:1006E0007CB50121062001F08DFD174D05220C215E
:1006F000284600F06BFE05220D21284600F066FE1C
:10070000124C05220321204600F060FE052206213E
:10071000204600F05BFE02218DF8041000218DF8C8
:10072000061003228DF805208DF8071011030091A3
:100730006946284600F00CFE482100916946204693
:1007400000F006FE7CBD00000004024000080240EC
:100750001FB50121880301F071FD4FF40071ADF860
:1007600000100020ADF80200ADF80400ADF806104E
:100770004AF644410291ADF80C00074C6946204608
:1007800001F030F801220221204602F01DFE012175
:10079000204601F01AF81FBD0038004010B504468D
:1007A000FFF79EFFFFF7D4FFFFF786FE204603F01A
:1007B00066F808B1012010BD4FF480410E48FFF7E4
:1007C000B5FD4FF400410D48FFF7B0FD0C49002086
:1007D0000870487048600B4A5060106090608870E4
:1007E0008860C8701146C8600861486100210648E9
:1007F00000F03EFA002010BD0000002000000010B4
:100800004C800010CC8200107060024010B50A4C81
:10081000207800280FD0607800280CD1012003F048
:1008200001F906F003F901206070FFF7A1FEBDE8B1
:10083000104006F009B910BD4C8000102DE9F041C0
:1008400007460D464FF480581F4E22E0B168C1F5AF
:100850008054AC4200D92C461C48620000EB410099
:100860003946FFF74AFD07EB44072D1BB068011915
:10087000B16041450DD31648B1784FF4005200EBFA
:1008800041301249FFF739FD0020B060B078401CBC
:10089000B07015B1B0780228D8D30E4C45B1A0681D
:1008A000C0F58040A84203D329463846FFF7C4FE6E
:1008B000B078022806D1A068404503D3BDE8F041D6
:1008C000FFF742BEBDE8F0814C80001000400020E0
:1008D00000000020CC8200100549002008704870FC
:1008E0004860044A5060106090608870886070476B
:1008F0004C800010CC82001010B50C4C20780028E1
:1009000013D06078002810D006F090F8FFF7B2FD01
:100910000121074800F0ACF90020607006F094F85F
:10092000BDE81040002003F07DB810BD4C800010E1
:100930007060024010B5012003F074F80748007899
:10094000002809D006F072F8FFF712FEFFF7C4FF87
:10095000BDE8104006F078B810BD00004C800010D3
:1009600070B50446002C07D006F060F8134D2878C7
:1009700030B1687810B103E0012070BDFFF7F8FDD9
:100980000F4994E80D000C310DC10120E870FFF70C
:10099000A3FF06F059F84FF480410A48FFF7C6FC60
:1009A0004FF400410848FFF7C1FCA07A20B10020B5
:1009B00003F038F8002070BD0120F9E74C800010EA
:1009C000CC820010000000200000001001484068A8
:1009D000704700004C800010FEE770B500254FF412
:1009E000803400E0641E24B1802001F083FD0028E3
:1009F000F8D02CB140F2FF5001F03AFD284670BD0E
:100A0000032070BD70B5054600243B49086800E02E
:100A1000086810F0450FFBD0410705D503240420DA
:100A200001F026FD204670BDC00705D0012401203D
:100A300001F01EFD204670BD01F056FDA84201D018
:100A4000102070BD40F2FF5001F012FD002001F0B7
:100A50006DFD2A49084201D1204670BD002801DA07
:100A60001C2070BD410001D5092070BD810001D559
:100A70000A2070BDC10001D50B2070BD010101D558
:100A80000C2070BD410101D50D2070BDC10101D503
:100A90000E2070BD010201D50F2070BD410201D5AD
:100AA000102070BD810201D5112070BDC10201D599
:100AB000122070BD010301D5132070BD410301D583
:100AC000142070BD810301D5152070BDC10301D56F
:100AD000162070BD010401D5172070BD410401D559
:100AE000182070BD810401D5192070BD000701D503
:100AF0001A2070BD204670BD342C014008E0FFFD77
:100B000010B500240E4A116800E0116811F0450F7D
:100B1000FBD0480705D50324042001F0A9FC20469A
:100B200010BDC80705D00124012001F0A1FC20461A
:100B300010BD40F2FF5001F09BFC204610BD0000AC
:100B4000342C014010B500240A4A116800E01168F5
:100B500011F0450FFBD0480705D50324042001F010
:100B600087FC204610BD40F2FF5001F081FC20467A
:100B700010BD0000342C014070B506460C4600251F
:100B80001C4A106800E0106810F0450FFBD04107C8
:100B900005D50324042001F06BFC204670BDC0077E
:100BA00005D00124012001F063FC204670BD01F056
:100BB0009BFCB04201D0102070BD40F2FF5001F00C
:100BC00057FC002001F0B2FC10F4604F03D0810408
:100BD00005D5132070BD000C2080284670BD41044F
:100BE00001D5102070BD000401D50F2070BD28462E
:100BF00070BD0000342C014010B500204FF480314E
:100C00000D4B1A6801E0491E1A6812F0450F01D118
:100C10000029F8D109B1510705D50324042001F0BA
:100C200027FC204610BD5106FCD50024402001F0D1
:100C30001FFC204610BD0000342C0140FFF722BCF1
:100C400002F0AEB9074A904201D2074801E00548D8
:100C50001038064A8B0001EA020101D5C1607047D5
:100C60008160704710640240006002407D0F7D0F7C
:100C7000002904D0016841F001010160704701685A
:100C800021F00101016070472DE9F043016821F076
:100C9000010101600021016041608160C16001616A
:100CA000212141613E493E4A10394FF03D089042B2
:100CB00003D1C1F80880BDE8F083394A4FF4746568
:100CC0001832904201D18D60F5E7354A4FF4741621
:100CD0003032904201D18E60EDE7314A4FF07467B7
:100CE0004832904201D18F60E5E72D4B2D4A6033A9
:100CF000984201D1CA60DEE7294C2B4B7834A042E0
:100D000001D1CB60D7E7DFF898C0284C0CF1900CEC
:100D1000604501D1CC60CEE7DFF884904FF03D5CB8
:100D200009F1A809484502D1C1F80CC0C3E7204920
:100D3000DFF87C900839484502D1C1F80080BAE755
:100D4000DFF86C8008F11808404501D10D60B2E76A
:100D5000174D3035A84201D10E60ACE7144D48352F
:100D6000A84201D10F60A6E7114D11496035091F56
:100D7000A84201D10A609EE70D4A7832904201D123
:100D80000B6098E70A4A9032904201D10C6092E7DA
:100D9000074AA83290428ED1C1F800C08BE700000C
:100DA000106002403D000020400F002000003D2068
:100DB00010640240002904D0016841F02001016064
:100DC0007047016821F02001016070470146002052
:100DD0000968C90700D001207047000002460020C2
:100DE000084B9A4201D2084A01E0064A103A8B00A9
:100DF00001D5526800E01268044B1A400A4200D044
:100E00000120704710640240006002407D0F7D0F9A
:100E10000B0609D522B1436943F08003436103E027
:100E2000436923F080034361802905D001F01E014E
:100E30001AB102680A430260704702688A4302607E
:100E40007047000030B50368124A1340CC680A6846
:100E50002243D1E905452C432243CC6922430C6A45
:100E600022434C6A22438C6A22434C6B22438C6B94
:100E700022431A430260426922F00703D1E90B249E
:100E800022431A4342610A6942604A688260896863
:100E9000C16030BD3F801CF041607047002101609F
:100EA00041608160C160016141618161C161016234
:100EB00041628162C162016341638163704770472F
:100EC00030B54FF47A72A0FB023501FB02510024C9
:100ED00000FB041118469DE000BF00BF00BF00BF2B
:100EE00000BF00BF00BF00BF00BF00BF00BF00BF0A
:100EF00000BF00BF00BF00BF00BF00BF00BF00BFFA
:100F000000BF00BF00BF00BF00BF00BF00BF00BFE9
:100F100000BF00BF00BF00BF00BF00BF00BF00BFD9
:100F200000BF00BF00BF00BF00BF00BF00BF00BFC9
:100F300000BF00BF00BF00BF00BF00BF00BF00BFB9
:100F400000BF00BF00BF00BF00BF00BF00BF00BFA9
:100F500000BF00BF00BF00BF00BF00BF00BF00BF99
:100F600000BF00BF00BF00BF00BF00BF00BF00BF89
:100F700000BF00BF00BF00BF00BF00BF00BF00BF79
:100F800000BF00BF00BF00BF00BF00BF00BF00BF69
:100F900000BF00BF00BF00BF00BF00BF00BF00BF59
:100FA00000BF00BF00BF00BF00BF00BF00BF00BF49
:100FB00000BF00BF00BF00BF00BF00BF00BF00BF39
:100FC00000BF00BF00BF00BF00BF00BF00BF00BF29
:100FD00000BF00BF00BF00BF00BF00BF00BF00BF19
:100FE00000BF00BF00BF00BF00BF00BF00BF00BF09
:100FF00000BF00BF00BF00BF00BF00BF00BF00BFF9
:1010000000BF00BF00BF00BF00BF00BF00BF00BFE8
:1010100000BF00BF421E41F1FF331046D2431946C4
:1010200072EA03027FF458AF30BD000030B58FB0D4
:101030000121880501F0E6F81A4C00212046FFF74F
:1010400017FE2046FFF7C2FE0028FAD12046FFF720
:101050001BFE154D20462946FFF7F4FD6846FFF7B5
:101060001DFF00220092802003900123049301922F
:101070000E4802905802059006928000079080006A
:1010800008900B920C930D920E92099200010A9017
:1010900069462046FFF7D6FE29462046FFF7D2FDD7
:1010A0000FB030BD106402403D0080108000006C25
:1010B0008000A0F1C040002904D0016841F0010186
:1010C000016070470168024A1140016070470000EA
:1010D000FEFF0F0070B501688900A1F1C0410B68E7
:1010E000344A1340D0E901242243D0E903452C437C
:1010F00022434469224384692243C4692243046A27
:101100002243446A2243846A2243C46A2243046B12
:1011100022431A430A608168082907D101688900BF
:10112000A1F1C0410A6842F040020A600168491C0E
:101130008A00A2F1C042116801F04044416BD1E93C
:10114000003543EA05138D688E892D0245EA064570
:101150002B430D8A43EA05530D7D896943EA0563F4
:101160000B4323431360C16AB1F5804F08D0006878
:101170006FF070418000A0F1C040C0F8041170BD54
:1011800001688900A1F1C041D1F804210A4B1A403D
:10119000806BD0E9003443EA041384688589240213
:1011A00044EA05448069234303431343C1F80431EF
:1011B00070BD00008000F7FF0000F0CF014602A0E4
:1011C00002F0EAFCFEE700005B464154414C5D2022
:1011D00025730D0A000000002DE9FC470E4600248F
:1011E000002700970197574D4FF0080AC5F800A057
:1011F000102068604FF04009C5F80890EF604FF488
:101200008068C5F81080284601F0C6F91020FFF765
:10121000F9FB002832D14C480089000428603720AF
:101220006860C5F80890EF60C5F81080284601F0A6
:10123000B3F93720FFF7E6FB00281FD1411E05F167
:1012400014000160C0F804A0302181600221C16057
:1012500007610121416101F023F92F6033206860AB
:10126000C5F80890EF60C5F81080284601F094F9A1
:101270003320FFF7C7FB0546280001D0BDE8FC87F7
:101280004FF4001A6F46DFF8C48040F22A6908E084
:10129000504601F02FF920B101F078F947F8240009
:1012A000641CD8F8000010EA090FF1D0082001F002
:1012B00021F920B1082001F0DBF80420DEE702204C
:1012C00001F018F920B1022001F0D2F80220D5E790
:1012D000202001F00FF920B1202001F0C9F80620EC
:1012E000CCE74FF40074204601F004F920B1204609
:1012F00001F0BEF80720C1E740F2FF5001F0B8F856
:1013000000980099000601F47F4140EA012000990D
:1013100001F47F0140EA1120009940EA11607060F9
:1013200001980199000601F47F4140EA01200199EA
:1013300001F47F0140EA1120019940EA1160306018
:1013400028469BE7A081001028800010342C014023
:101350002DE9F041002201274FF0030C07FA02F5B6
:101360000B682B40AB422CD1066853000CFA03F4F7
:10137000A64306600E79D0F800809E4046EA080633
:1013800006600E79012E01D0022E12D18668A64386
:1013900086604E79D0F808809E4046EA080686604E
:1013A0004668AE43466045688E799640B6B235438E
:1013B0004560C568A543C560CC799C40C3681C43A3
:1013C000C460521C102AC9D3BDE8F08110B54B0788
:1013D000DB0E9A40C90800EB8100016A0F249C4093
:1013E000A1430162016A1143016210BD024600205F
:1013F00012690A4200D001207047090481617047D8
:101400008161704770B5244C6079002803D1A079C0
:1014100008B9E07930B16421206905F063FE012844
:1014200002D036E0002070BDE0790025C0B1E57142
:10143000E07818B1E078012808D011E0FFF7E6F96C
:101440000120E07015A002F0A7FB09E0FFF754FAB5
:10145000E57005F06FFF1449C86014A002F09CFB12
:10146000607950B1657120780521401CB0FBF1F224
:1014700001FB120000F06AFF05E0A07918B1A57128
:10148000207800F063FF00231A461946206905F012
:1014900021FD012070BD0000CC80001050617573EB
:1014A00065640D0A00000000C8DC00105265737509
:1014B0006D65640D0A000000044624A003F0BEFD23
:1014C000FCB128A0216803F0C3FD28A0616803F0E7
:1014D000BFFD28A0A16803F0BBFD28A0E16803F0D0
:1014E000B7FD28A0216903F0B3FD28A0616903F0CE
:1014F000AFFD28A0A16903F0ABFD28A0E16903F0CE
:10150000A7FD2848016828A003F0A2FD2548001D7A
:10151000016827A003F09CFD22480C30016826A03A
:1015200003F096FD1F481030016825A003F090FDE0
:10153000EFF3088124A003F08BFDEFF3098124A0D1
:1015400003F086FD24A003F079FDFEE70D0A2A2AA8
:101550002A2048415244204641554C54202A2A2AE8
:101560000D0A0000523020200000000052312020DF
:1015700000000000523220200000000052332020E2
:101580000000000052313220000000004C522020A8
:10159000000000005043202000000000785053520B
:1015A0000000000028ED00E0434653520000000018
:1015B00048465352000000004D4D46415200000085
:1015C00042464152000000004D53502000000000F0
:1015D00050535020000000002A2A2A20E5819CE474
:1015E000BD8F202A2A2A0D0A0000000030B50346CC
:1015F00000209A8A02F0020422F010052C4308D041
:101600001B8B1B041A4322F07F42914300D101201F
:1016100030BD002030BD002904D0018841F0010117
:1016200001807047018821F00101018070470000AE
:1016300010B5154988420AD101214C05204600F019
:101640000BFE2046BDE81040002100F005BE0F490A
:1016500088420AD101218C05204600F0FDFD20467C
:10166000BDE81040002100F0F7BD094988420AD1C9
:101670000121CC05204600F0EFFD2046BDE81040DA
:10168000002100F0E9BD10BD0054004000580040AA
:10169000005C0040002904D0018841F48071018081
:1016A0007047018821F4807101807047002904D0BF
:1016B000018841F4007101807047018821F40071B4
:1016C000018070470CB50246002000920A0F01927B
:1016D00021F07F41019A002A03D0009A143200922F
:1016E00003E0090C009A18320092009A12680A422C
:1016F00000D001200CBD00007FB504460D46A08837
:1017000020F03F06684600F0D1FD02982749B0FB63
:10171000F1F189B20E43A680228822F001022280D4
:10172000234B2A689A4209D85200B0FBF2F080B2EB
:10173000042800D20420491C218423E0EB88A3F56F
:101740003F46FF3E0BD002EBC20303EB0212B0FB9D
:10175000F2F080B240F48040020506D007E002EBD0
:101760004202B0FBF2F080B2F6E740F0010040F434
:1017700000404FF4967251434FF47A72B1FBF2F18C
:10178000491C2184A083208840F00100208020880B
:101790004FF6F5310840A9886A8911430143218039
:1017A000A8892989084320817FBD000040420F009D
:1017B000A0860100002A02D041F0010101E001F001
:1017C000FE010182704701827047002904D0818B9D
:1017D00041F4806181837047818B21F48061818332
:1017E00070470000F0B502220023848B4FF24005C1
:1017F0002C40848302240484868B8C68022C50D075
:101800008A8862B320224B884FF6FF77202B01D8BD
:1018100007EA4202324B1C68240203D51C6824F4F8
:1018200000041C602E4B7C331C68C4F388141B68B6
:10183000C3F30275DFF8A8C0ACF1040CDCF800308B
:1018400003F03F03DCF800C05FEA4C2C09D5DFF859
:1018500094C0BCFBF3F36343B3FBF5F308E0102241
:10186000D1E7DFF884C0BCFBF3F36343B3FBF5F3CC
:10187000CC88B4F5007F29D05201B3FBF2F202EB21
:1018800082028B685200B2FBF3F2521D92B20A231D
:10189000B2FBF3F202F00103D21AC2F34F0207EADD
:1018A0000323941EFE2C01D302220023CC881A436A
:1018B000144304840A884B881A438B8889890B4314
:1018C0001A43324342F400618183F0BD1A0A02EBED
:1018D00082028B685200B2FBF3F2521D92B2D6E73D
:1018E0000838024000127A000024F40030B50446A3
:1018F0004FF41635002140F2DF1340F23F12084644
:1019000000F036FA00214FF0D84202E0A2F8804001
:10191000491CA942FAD330BD70B500F0EBF8FFF7CF
:1019200085FB724D4FF4004421462846FFF765FDC4
:1019300014200021FFF7C4FA21462846FFF760FD76
:1019400078200021FFF7BCFAE02000F037FA0020F1
:1019500000F038FA032000F035FA092000F032FADE
:10196000082000F02FFA162000F02CFA0A2000F0D0
:1019700029FA3F2000F026FA782000F023FA4C20C4
:1019800000F020FA092000F01DFA0A2000F01AFAEF
:10199000082000F017FA162000F014FA1A2000F0C0
:1019A00011FA0F2000F00EFAE12000F007FA0020F3
:1019B00000F008FA162000F005FA192000F002FAEB
:1019C000032000F0FFF90F2000F0FCF9052000F0E3
:1019D000F9F9322000F0F6F9452000F0F3F946203D
:1019E00000F0F0F9042000F0EDF90E2000F0EAF923
:1019F0000D2000F0E7F9352000F0E4F9372000F081
:101A0000E1F90F2000F0DEF9C02000F0D7F917202F
:101A100000F0D8F9152000F0D5F9C12000F0CEF97A
:101A2000412000F0CFF9C52000F0C8F9002000F0F7
:101A3000C9F9122000F0C6F9802000F0C3F9362061
:101A400000F0BCF9482000F0BDF93A2000F0B6F9EA
:101A5000552000F0B7F9B02000F0B0F9002000F0F8
:101A6000B1F9B12000F0AAF9A02000F0ABF9B42040
:101A700000F0A4F9022000F0A5F9B62000F09EF9CC
:101A8000022000F09FF9022000F09CF93B2000F0BA
:101A900099F9B72000F092F9C62000F093F9F720E9
:101AA00000F08CF9A92000F08DF9512000F08AF99E
:101AB0002C2000F087F9822000F084F9112000F03A
:101AC0007DF978200021FFF7FBF9292000F076F955
:101AD00032200021FFF7F4F91F20FFF707FF21460E
:101AE000BDE870400248FFF78BBC000000180240C0
:101AF000000402402DE9F04F9FB00121084600F09C
:101B00008FFB01217E2000F07DFB02258DF87850AF
:101B100003208DF8790000248DF87A408DF87B4001
:101B20004CF203701D908C4E1DA93046FFF710FC3F
:101B30000C2200213046FFF749FC0C2201213046DF
:101B4000FFF744FC0C2208213046FFF73FFC0C2233
:101B500009213046FFF73AFC0C220A213046FFF7F4
:101B600035FC0C220E213046FFF730FC0C220F21F1
:101B70003046FFF72BFC4FF680711D91774F1DA962
:101B80003846FFF7E5FB0C2207213846FFF71EFC1D
:101B90000C2208213846FFF719FC0C22092138468F
:101BA000FFF714FC0C220A213846FFF70FFC0C2229
:101BB0000B213846FFF70AFC0C2211463846FFF786
:101BC00005FC0C220D213846FFF700FC0C220E21EB
:101BD0003846FFF7FBFB0C220F213846FFF7F6FBD8
:101BE00030211D911DA93046FFF7B2FB0C220421C4
:101BF0003046FFF7EBFB0C2205213046FFF7E6FBF2
:101C0000EF021D97DFF858911DA94846FFF7A0FB8A
:101C10000C2211464846FFF7D9FB1D97DFF8448197
:101C20001DA94046FFF794FB0C2211464046FFF7E2
:101C3000CDFB01261D968DF878608DF87A408DF8E1
:101C400079508DF87B40DFF820A11DA95046FFF7A1
:101C50007FFB04201D908DF878408DF87B401DA9F6
:101C60005046FFF775FBA8021D908DF878608DF83F
:101C70007A408DF879508DF87B401DA94046FFF7DA
:101C800067FB4FF40058CDF874808DF878608DF8BC
:101C90007A408DF879508DF87B60DFF8D0B01DA9BF
:101CA0005846FFF755FB41465846FFF7A9FB1D95DF
:101CB0008DF878408DF87B501DA95046FFF748FB02
:101CC0004FF40048CDF874808DF878608DF87A4034
:101CD0008DF879508DF87B401DA94846FFF738FBF9
:101CE00041464846FFF78CFBCDF874801DA950464D
:101CF000FFF72EFB41465046FFF77FFB16951794E2
:101D00000A20189019941A941B941C940F951094FF
:101D10001190129413941494159406200090019439
:101D20000294102003900494069405940794089458
:101D300009970A9480020B900C9416A80D900FA896
:101D40000E906846FFF7C6F901210620FFF7B0F9AB
:101D50001FB0BDE8F08F0000000C024000100240F0
:101D60000018024000140240000402400008024033
:101D700030B504460D462A2000F020F8200A00F075
:101D800021F8E0B200F01EF8100A00F01BF8D0B203
:101D900000F018F82B2000F011F8280A00F012F8D3
:101DA000E8B200F00FF8180A00F00CF8D8B200F012
:101DB00009F8BDE830402C20AFF300804FF0D84147
:101DC0000880704701490880704700008000006C5F
:101DD0001CB50121102000F015FA1C2000900020F5
:101DE0008DF8040001208DF8070069460148FFF7CF
:101DF000AFFA1CBD001002402DE9F04706460C4624
:101E0000DFF86C801B4F2BE0B4F5803F02D34FF618
:101E1000FF7500E0254600213846FEF729FF3846C9
:101E2000FEF7D4FF0028FAD141463846FEF70AFFF4
:101E3000104808300660A9B23846FFF72DF8BFF306
:101E40004F8F01213846FEF713FFDFF82C903846FC
:101E50004946FEF7C3FF0028F9D006EB4506641B90
:101E6000002CD1D141463846BDE8F047FEF7EABE26
:101E70003D0080101064024020000010FEE70000CA
:101E800070B500244FF4967501220BA10B4802F0A7
:101E90008DFE014669B1621C09A001F07DFE284655
:101EA0000021FFF70DF8641CE4B2052CECD30D20E3
:101EB00070BD002070BD0000313A0000986B012019
:101EC0005344206D6F756E74206661696C282564BB
:101ED000292C2072657472792025752F350D0A0022
:101EE000704738B54FF4407000F04CF831208DF851
:101EF000000000208DF801008DF8020001248DF80B
:101F00000340684600F00AF83B208DF800008DF889
:101F10000140684600F002F838BD000030B50F23DC
:101F2000C27801250178002A1FD0154A126802F4F0
:101F3000E062C2F5E062C2F30722C2F10404D340BA
:101F40004278A24084781C401443220101F1E02130
:101F500081F80024007800F01F018D4040098000C6
:101F600000F1E020C0F8005130BD01F01F008540B5
:101F70004809800000F1E020C0F8805130BD000029
:101F80000CED00E002490843024908607047000078
:101F90000000FA050CED00E0F0B58FB00646002514
:101FA00004954C4F7878002803D04B4802F0EEFDA2
:101FB0007D70484C01221C34474854F8261002F02A
:101FC0001FFE02463AB154F8261044A001F0E4FD89
:101FD00001200FB0F0BD0120787004AB282205A9C4
:101FE0003D4802F001FF10B90498282808D040A00D
:101FF00001F0D2FD384802F0C9FD7D700220E8E70B
:10200000282205A93F48FEF778F94FF4F04C3D4CE3
:102010003D492068884201D001212CE0A18859B1B6
:10202000E2884AB1208948B163893BB1E06808B1D0
:10203000604505D904211EE002211CE003211AE0BD
:102040005FEAC05C01D0052115E051432269B2EB83
:10205000410F01D006210EE05843904201D00721E4
:1020600009E0E06930B1B0F5005F01D8800701D028
:10207000082100E0002141B124A001F08DFD1648A7
:1020800002F084FD7D700320A3E7E06960B121695F
:1020900008446169484328300F49C968814203D226
:1020A0001FA001F079FDE5613E70BD70E06908B1E7
:1020B00023A000E019A06389E2686169CDE90210FC
:1020C000CDE900322389E288A1881FA001F064FDD8
:1020D00000207EE7CC800010CC6D01204F70656E33
:1020E000202573206661696C3A25640D0A000000A2
:1020F0005265616420686561646572206661696C1F
:102100000D0A0000A0DC0010564D503142616420E1
:10211000686561646572282564290D0A0000000065
:102120005B5741524E5D204E6F20617564696F2090
:10213000646174612C206D7574650D0A00000000E7
:10214000202B617564696F002E7669643A25757875
:102150002575202575667073202575626C6B2F665A
:1021600020256C754220256C7566726D25730D0AED
:102170000000000010B505F0CFF8012803D0BDE83D
:102180001040FEF73BB810BD2DE9FC4105F0D2F838
:10219000104C2169401AB0F57A7F18D30E4DA8690A
:1021A00004F0D6FB0646686904F0D2FB0746FEF74A
:1021B0000DFC0246E8783B46CDE9006007A0A16827
:1021C00001F0EAFC0020A06005F0B4F82061BDE851
:1021D000FC810000C8DC0010CC8000106670733DEC
:1021E000257520756E3D256C752073746B28723DC6
:1021F000257520643D2575292073743D25640D0ADD
:1022000000000000054A002903D011680143116055
:1022100070471168814311607047000030380240F8
:10222000054A002903D01168014311607047116805
:10223000814311607047000038380240054A002988
:1022400003D0116801431160704711688143116028
:102250007047000040380240054A002903D0116849
:10226000014311607047116881431160704700009D
:1022700020380240054A002903D01168014311604B
:102280007047116881431160704700004438024074
:10229000054A002903D01168014311607047116895
:1022A00081431160704700002438024070B5244B10
:1022B000196801F00C01234C00291ED06610042976
:1022C0001DD008291DD00460196801F0F00109092A
:1022D0001D4A545C0168E14041601C6804F4E0540C
:1022E000A40A145D21FA04F484601B6803F46043BB
:1022F0005B0BD25CD140C16070BD0460E4E7066056
:10230000E2E70F4A121F1168C1F38055116801F00E
:102310003F0135B1B6FBF1F11468C4F38814614391
:1023200005E0B4FBF1F11468C4F38814614312684A
:10233000C2F30142521C5200B1FBF2F10160C3E74B
:10234000083802400024F4000080001038B504462C
:10235000FEF75CFA00254FF4F0734FF4A0722946A3
:102360002846009501F026F907490C718D7002206E
:10237000C87014210548FDF7D9FF04F0DBFF0349BD
:102380000861C86038BD0000CC800010C8DC0010B7
:102390002DE9FC470646002400940194002000F03B
:1023A000C5F8800102D50E20BDE8FC872E4D694698
:1023B000288980B2FEF710FF0028F5D137202B4F77
:1023C0004FF0060A4FF040094FF48068012E22D0EA
:1023D0000199C90345D52989090439607860C7F88E
:1023E0000890FC60C7F81080384600F0D5F8372018
:1023F000FEF708FB0028D7D13C60C7F804A0C7F857
:102400000890FC60C7F81080384600F0C5F8062038
:10241000FEF7F8FAC8E70199490320D5298909048C
:1024200039607860C7F80890FC60C7F810800F48E2
:1024300000F0B2F83720FEF7E5FA0028B4D1022008
:102440003860C7F804A0C7F80890FC60C7F810808F
:10245000064800F0A1F80620FEF7D4FAA4E72520EC
:10246000A2E72520A0E7000028800010A08100102E
:102470000149086070470000382C0140014908609C
:1024800070470000382C0140014908607047000087
:10249000A080254201490860704700008C852542D4
:1024A00010B50A4A01681160121D41681160141DBF
:1024B000216821F0F701D0E902231A43D0E9043062
:1024C00003431A430A43226010BD0000242C01403C
:1024D00010B50121CC022046FFF7DAFE2046BDE808
:1024E00010400021FFF7D4BE01480068C0B2704719
:1024F000102C014001460020024A12680A4200D016
:1025000001207047342C014001460020024A126825
:102510000A4200D001207047342C01400248006874
:1025200000F0030070470000002C014008B503498B
:10253000084400900098006808BD0000142C014079
:1025400000F042BD054A002903D011680143116023
:102550007047116881431160704700003C2C0140B6
:1025600030B5094B196847F6FF629143027D8468D4
:10257000C568224344682C4322430468006922430F
:1025800002430A431A6030BD042C01400148006830
:1025900070470000802C014010B5084A01681160A6
:1025A000141D21686FF30A01D0E901231A43D0E911
:1025B000033003431A430A43226010BD082C014034
:1025C0000149086070470000002C014008B5012057
:1025D000009008210448FEF709FF08B10020009090
:1025E0009DF8000008BD0000000C02402DE9F041FC
:1025F000014600241C484068032805D038B1012852
:1026000005D0022803D02DE02720BDE8F081B1F5E8
:10261000805F0CD04FF400670026144DB94212D1F0
:102620000120FFF7B5FE0446200002D01AE0272063
:10263000EBE72E752E606E60AE60EF602E610B488A
:10264000FFF78EFF0EE00020FFF7A2FE04462000F9
:1026500008D12E752E606E60AE60EE602E6103486C
:10266000FFF77EFF2046D0E7288000108881001009
:102670002DE9F04397494E6880F856600989A0F823
:102680005410DFF854C2DCF800100A0E93090370EE
:10269000C2F38303437002F0030282700A0CC2701B
:1026A0000A0A02714171DCF80420110E0901C1808F
:1026B000C2F30741C38843EA1113C38001F00F013D
:1026C0000172C2F30721CB094372C1F380138372F5
:1026D000C1F34013C372C1F30013037300234373A8
:1026E00064460127D4F80880002E4FEA1864C8F326
:1026F0000745C8F3072904D0012E02D0022E3AD094
:1027000051E08907090D0161D1B2026942EA8101F4
:102710000161016941EA94110161C4F3C2010175CB
:1027200004F00701417569098175C5F38201C1751E
:10273000A907490F01764946027E42EAD112027684
:102740000269521C047EA41C07FA04F6A2FB064987
:10275000F51703FB069602FB0565027A07FA02F9F4
:10276000C0F85090A4FB092605FB096504FB03543F
:10277000C0E9122417E09106890A0161016941EA62
:102780000421016101692943016149460269521C22
:1027900043F10004E40444EA5234D204C0E91224B0
:1027A0004FF4007202651C30C1F3801200F8032C54
:1027B0008906490E00F8021C08F0FF0110F8022CEF
:1027C00042EAD11200F8022C01F07F0100F8011C4E
:1027D000DCF80C20110ECC090470C1F341144470D4
:1027E000C1F3820484708907090FC170C2F30741E5
:1027F000C47844EA9114C470C1F340140471437165
:1028000001F001018171C2F30721CC09C471C1F348
:1028100080140472C1F340144472C1F30014847232
:10282000C1F38104C47201F003010173D1B24908FC
:1028300041738773284A103211680C0E04740C0C13
:1028400024024482C1F30724458A254345820906B0
:10285000416151680C0E456945EA04444461C1F385
:102860000744456945EA04244461C1F307244569E6
:1028700025434561017691680C0E44760C0C2406C4
:10288000C461C1F30724C56945EA0444C461C9B2FF
:10289000C46944EA0121C161D1680A0EC4691443C4
:1028A000C461C1F3074290F8204044EA121480F852
:1028B00020401207120D4284C1F30722448C1443B6
:1028C0004484C9B2490880F8241080F8257018465D
:1028D000BDE8F083288000100081001008B50020BA
:1028E0000090FFF773FE012801D0FF2008BD684665
:1028F00000F036FC08B1FF2008BD0098C0F343206B
:1029000008BD10B5FFF7EAFF042803D0FF2803D065
:10291000012010BD002010BD022010BD2DE9F043A4
:1029200093B0002711971297402101A8FDF7FEFCF4
:1029300001AC514807700761C76050490F600089BA
:1029400011A980B2FEF748FC00285CD1129911F061
:10295000407100D00121002955D0494D4FF0400869
:10296000C5F8008010206860C5F80880EF604FF45B
:102970008069C5F810902846FFF70EFE1020FEF77C
:1029800041F800283FD1461E05F114000660C0F84A
:102990000480602181600221C160076101214161E1
:1029A000FFF77EFD3748286006206860C5F808807C
:1029B000EF60C5F810902846FFF7EEFD0620FEF701
:1029C00021F800281FD12D4F4FF40049083740F25D
:1029D0002A680CE04846FFF78DFD40B10025FFF75F
:1029E000D5FD44F825006D1C082DF8D32034386837
:1029F00010EA080FEED00820FFF77CFD30B1082068
:102A0000FFF736FD042013B0BDE8F0830220FFF786
:102A100071FD20B10220FFF72BFD0220F3E72020FB
:102A2000FFF768FD20B12020FFF722FD0620EAE72E
:102A30004FF400752846FFF75DFD20B12846FFF7EB
:102A400017FD0720DFE74FF4001503E0FFF79EFDB9
:102A500001C4761E2846FFF74DFD08B1002EF5D1C2
:102A600040F2FF50FFF704FD9DF81100800701D5EB
:102A70000020C8E72720C6E7288000102C2C014042
:102A8000A081001001FFFF80F8B50024009400F041
:102A900067F9FFF71DFD00F0C1F900909DF80000F7
:102AA00010B19DF80000F8BD00F044F800909DF8CA
:102AB000000010B19DF80000F8BD1D4D2C752C6074
:102AC0006C60AC60EC602C612846FFF749FDA5F115
:102AD0005800FFF7CDFD00909DF8000040B9A5F12A
:102AE00058000021B0F85400000400F023FB0090CF
:102AF0009DF800004FF4006618B93046FFF776FDE8
:102B000000909DF8000010B9FFF708FF00909DF8B5
:102B1000000050B92C752C604FF480606860AC6088
:102B2000EE602C610248FFF71BFD9DF80000F8BD28
:102B3000888100102DE9F84F002401200090FFF754
:102B4000EDFCE0B1DFF8FC8000263F4DD8F8040032
:102B50004FF0C0094FF4806704282AD02E6002206D
:102B60006860C5F80890EE602F612846FFF714FDF5
:102B7000FDF7C6FF0446200003D0BDE8F88F2520EE
:102B8000FBE70020FFF7D2FCDFF8BCA0AAF1900A17
:102B9000CAF800000420FFF7C9FCCAF804000820A6
:102BA000FFF7C4FCCAF808000C20FFF7BFFCCAF806
:102BB0000C00D8F8040028B1012803D0062801D061
:102BC000022811D12E60032068604020A860EE60CA
:102BD0002F611D48FFF7E0FC69460320FDF7CCFF9D
:102BE0000446200000D0C8E7D8F80400042826D006
:102BF000BDF80000C8F808000004286009206860DB
:102C0000C5F80890EE602F610F48FFF7C5FCFDF78F
:102C100077FF0446200000D0AFE70020FFF786FCD6
:102C2000094DA03D28600420FFF780FC6860082063
:102C3000FFF77CFCA8600C20FFF778FCE8602046DA
:102C40009BE7000028800010A081001070B590B0B4
:102C500005460C461D4E4FF0FA513046FDF7F2FF87
:102C600000213046FEF704F83046FEF70DF84FF02D
:102C7000006001901648029003950020049005948E
:102C800006903115079189000891890009910A90F1
:102C90004FF440300B9004200C9003200D9048021C
:102CA0000E9080100F9001A93046FEF7CBF801225C
:102CB00010213046FEF7ACF820213046FEF77AF8B6
:102CC00001213046FDF7D4FF10B070BD58640240BA
:102CD000802C014070B590B004460D461E4E4FF05A
:102CE000FA513046FDF7AEFF00213046FDF7C0FF38
:102CF0003046FDF7C9FF4FF0006001901748029081
:102D0000039440200490059500200690311507910A
:102D100089000891890009910A904FF440300B9086
:102D200004200C9003200D9048020E9080100F900C
:102D300001A93046FEF786F8012210213046FEF741
:102D400067F820213046FEF735F801213046FDF7BF
:102D50008FFF10B070BD000058640240802C01400D
:102D60002DE9FC4101210C20FFF74CFA294F0C22E0
:102D700008213846FEF72AFB0C2209213846FEF7C7
:102D800025FB0C220A213846FEF720FB0C220B21E2
:102D90003846FEF71BFB0C2211463846FEF716FBA1
:102DA0001D4E0C2202213046FEF710FB4FF47060DE
:102DB000009002218DF805108DF8041000248DF884
:102DC000064001258DF8075069463846FEF7C0FADF
:102DD0000420009069463046FEF7BAFA28030090B6
:102DE0008DF8074069463846FEF7B2FA0820009091
:102DF0008DF804408DF8075069463046FEF7A8FA72
:102E00000121C802FFF736FA01218805FFF7FAF918
:102E1000BDE8FC8100080240000C02402DE9F84F9B
:102E200000270097BB460024A2460025594876217A
:102E30000175076047608760C7600761FFF790FB17
:102E40000320FFF7BDFB0120FFF71EFB514E183694
:102E500037607760B760F7604FF48069C6F810900C
:102E60003046FFF799FBFDF7B8FD00909DF8000094
:102E700018B19DF80000BDE8F88F4FF4D5703060B0
:102E8000082070604FF04008C6F80880F760C6F868
:102E9000109040481830FFF77FFBFDF7ADFE009023
:102EA0009DF8000018B3376037207060C6F80880BE
:102EB000F760C6F8109037481830FFF76DFB3720E1
:102EC000FDF7A0FD0090376037207060C6F80880DD
:102ED000F760C6F810902F481830FFF75DFB3720D9
:102EE000FDF790FD00909DF8000090B34FE02A4858
:102EF000012141608D07E6E7376037207060C6F832
:102F00000880F760C6F8109022481830FFF744FB9D
:102F10003720FDF777FD00909DF8000010B19DF877
:102F20000000A8E71D482843306029207060C6F8DB
:102F30000880F760C6F8109016481830FFF72CFB91
:102F4000FDF700FE00909DF8000018B19DF800000C
:102F500091E706E00020FFF7E9FA83464FEADB7AC3
:102F6000641CBAF1000F03D14FF6FF708442C3D343
:102F70004FF6FF70844204D31B2000909DF80000A0
:102F800079E71BF0804F02D00348022141609DF891
:102F9000000070E788810010288000100000108079
:102FA0000748006810F0C05F08D00649012048615A
:102FB00003484FF0C2515830FDF744BE704700003F
:102FC000006402402880001070B54FF480752846D8
:102FD000FFF79AFA214C38B1002020702846FFF7FD
:102FE0004DFA0120206132E00220FFF78DFA28B16E
:102FF0000220FFF743FA0220207028E00820FFF7A4
:1030000083FA28B10820FFF739FA042020701EE067
:103010002020FFF779FA28B12020FFF72FFA0620A9
:10302000207014E01020FFF76FFA28B11020FFF78E
:1030300025FA052020700AE04FF400752846FFF7B6
:1030400063FA20B12846FFF719FA07202070002103
:103050004CF23A30FFF776FA207870BD28800010E5
:103060002DE9F05F8346DDE90A6714461D46DFF867
:10307000B8A04FF000088AF80080CAF810804FF01E
:103080000109CAF80C902948C0F80080012140F2DB
:103090002A30FFF757FA07FB06F15846FFF7D6FD2F
:1030A0000120FFF7F7F9DAF80400022803D106023D
:1030B000640A44EAC5541E4D2E60102068604FF02B
:1030C000400AC5F808A0C5F80C804FF4806BC5F81D
:1030D00010B02846FFF760FA1020FDF793FC002897
:1030E00020D1411E05F11400016077434760902113
:1030F00081600221C160C0F81080C0F81490FFF711
:10310000CFF92C6012206860C5F808A0C5F80C80C3
:10311000C5F810B02846FFF73FFABDE8F05F12206F
:10312000FDF770BCBDE8F09F288000102C2C0140FA
:10313000A081001010B5094A10600720506040209F
:1031400090600020D0604FF4806010611046FFF75F
:1031500023FABDE810400720FDF754BCA081001001
:1031600070B50546002D16D00F48008901040F48A0
:1031700001600D214160402181600021C1604FF458
:1031800080610161FFF708FA0D20FDF73BFC044662
:103190001CB1204670BD262070BD0020FFF7C6F987
:1031A0002860204670BD000028800010A08100101B
:1031B00010B50848002101600C2242604022826064
:1031C000C16011010161FFF7E7F9BDE810400C2073
:1031D000FDF718BCA08100102DE9F04100256C1E00
:1031E0002146154E00E0491E706928B9306918B9AA
:1031F000307808B90029F6D1002777610F4800E040
:10320000641E0168890401D5002CF9D1F0680128F9
:1032100003D1FFF7CDFF0546F7602C4300D104250D
:1032200040F2FF50FFF724F9307810B13078BDE854
:10323000F0812846FBE7000028800010342C014074
:103240002DE9F04100256C1E2146154E00E0491E77
:10325000706928B9306918B9307808B90029F6D1F1
:10326000002777610F4800E0641E0168C90401D59A
:10327000002CF9D1F068012803D1FFF799FF05462A
:10328000F7602C4300D1042540F2FF50FFF7F0F81F
:10329000307810B13078BDE8F0812846FBE70000B7
:1032A00028800010342C01402DE9F05F8246DDE9D2
:1032B0000A6714461D46DFF804914FF0000889F8AC
:1032C0000080C9F810800120C9F80C003C48C0F803
:1032D0000080012140F22A30FFF734F907FB06F1A4
:1032E0005046FFF7F7FC0120FFF7D4F8D9F80400A7
:1032F000022803D10602640A44EAC554314D2E6007
:10330000102068604FF0400BC5F808B0C5F80C807D
:103310004FF4806AC5F810A02846FFF73DF9102049
:10332000FDF770FB002847D1B9F8080000042860B9
:1033300037206860C5F808B0C5F80C80C5F810A043
:103340002846FFF729F93720FDF75CFB002833D129
:103350002F6017206860C5F808B0C5F80C80C5F864
:1033600010A02846FFF718F91720FDF74BFB00289F
:1033700022D12C6019206860C5F808B0C5F80C800F
:10338000C5F810A02846FFF707F91920FDF73AFB0A
:10339000002811D105F11402401E106077435760D8
:1033A00090209060C2F80C80C2F81080012050611B
:1033B0001046FFF775F84046BDE8F09F28800010E2
:1033C0002C2C0140A0810010002A03D082880A43DF
:1033D0008280704782888A438280704710B503F0EC
:1033E0009BFF012803D0BDE81040FCF7D9BE10BDFB
:1033F0000CB50022019200922D48016841F4803101
:1034000001604FF4A043016801F40031009101997B
:10341000491C0191009911B901999942F3D10168B0
:10342000890302D50121009100E000920099012951
:103430003CD11F4940310A6842F080520A601D4960
:103440000A6842F440420A60194908310A680A6071
:103450000A6842F400420A600A6842F4A0520A6014
:103460000B1F154A1A60026842F0807202600268FF
:103470009201FCD50E4B114A84331A60026842F067
:103480008062026002681201FCD50D4A40F20570AC
:103490001060086820F003000860086840F002002F
:1034A00008600868C0F381000228FAD10CBD000052
:1034B000003802400070004008544007C04300201C
:1034C000003C024010B503F027FF012803D0BDE8FF
:1034D000104003F05BBC10BD10B51248016841F408
:1034E000700101601048016841F0010101600E4A5D
:1034F00000210832116002680C4B1A400260031D63
:103500000B4A1A60026822F48022026006480C30DE
:103510000160FFF76DFF03494FF0006080390860DC
:1035200010BD000088ED00E000380240FFFFF6FE0D
:1035300010300024FEF71CBC10B590B001218805A6
:10354000FEF760FE184C00212046FDF791FB204657
:10355000FDF73CFC0028FAD12046FDF795FB01A8B9
:10356000FDF79CFC002101910291104803908020FE
:103570000490012205928000069007918000089037
:10358000800009900A9100010B900C910D920E9110
:103590000F9101A92046FDF755FC05492046FDF78E
:1035A00051FB10B010BD0000106402408000006CA0
:1035B0003D0080102DE9F0478046DDF820900D4653
:1035C00016461F46781E83B2701E82B229464046B8
:1035D000FFF7B0FF0AE0444604E0484600F012F866
:1035E000641CA4B2B442F8D36D1CADB2BD42F2D398
:1035F000BDE8F08710B5FEF78FF9BDE81040FFF782
:103600009BBF000001490880704700008000006CEB
:1036100010B5044C6068002803D1012003F0CCFBF6
:10362000606010BD1080001070B586B005460121A5
:103630000846FEF7E7FD01211020FEF71BFE4FF4C0
:103640000071049102218DF814108DF815100024DA
:103650008DF8164001218DF81710164E04A930463A
:10366000FDF776FE3115049104A93046FDF770FE92
:10367000072209213046FDF7A9FE07220A2130461C
:10368000FDF7A4FE0095ADF80440ADF80640ADF896
:103690000840ADF80C400C20ADF80A00064C694615
:1036A000204600F053F80121204600F01BF806B038
:1036B00070BD0000000002400010014010B5074C32
:1036C00040F22551204600F020F8002804D0204682
:1036D00000F09AF80249087010BD00000010014087
:1036E00010800010002904D0818941F400518181AB
:1036F0007047818921F40051818170470246002082
:1037000012880A4200D00120704770B5002440F6AC
:103710006A12C1F3421301F01F05012606FA05F2F1
:10372000012B0CD0022B0DD0838A1340090A8E4046
:10373000008830400BB100B10124204670BD838960
:103740001340F3E7038A1340F0E700007FB5044617
:103750000D46208A20F44051E88808432082A08941
:1037600041F20C618843A9882A8911436A8902437E
:103770001143A181A08A20F44071A8890843A08246
:103780006846FEF793FD1E48844202D01D488442DD
:1037900001D1039800E00298A189090408D500EB43
:1037A000C00101EB001029684900B0FBF1F007E00F
:1037B00000EBC00101EB001029688900B0FBF1F0BB
:1037C0006422B0FBF2F109010B096FF018056B439D
:1037D00000EB8300A3891D044FF0320307D503EBF0
:1037E000C000B0FBF2F000F00700084306E003EB76
:1037F0000010B0FBF2F000F00F00084320817FBD05
:1038000000100140001401408088C0F30800704798
:10381000C1F3080181807047FEE710B502460C46EF
:10382000032000F023F912B140F0030101E020F081
:103830000301032000F024F9022000F017F914B16D
:1038400040F0030101E020F00301BDE81040022038
:1038500000F016B910B50A4600F03F0102F03F042F
:10386000002900D1402104B94024342000F008F997
:1038700044F48071BDE81040352000F001B910B566
:10388000044600F06FF808B1012010BD00210220AD
:1038900000F05EF800210120FFF7BFFF00210120AA
:1038A00000F0D0F821462046FFF7D4FF002000F0BA
:1038B000B9F8002010BD000010B586B0012102202B
:1038C000FEF7A0FC01214805FEF7B8FC1D4C0422C0
:1038D00008212046FDF77AFD042209212046FDF744
:1038E00075FD4FF44071049102218DF814100122EE
:1038F0008DF816208DF817208DF8151004A9204694
:10390000FDF726FD104C2046FDF792FE0021ADF894
:1039100004104BF6FF72ADF80620ADF80810211523
:10392000ADF80A100901ADF80C100849009169467C
:103930002046FDF7E1FE01212046FDF76CFE06B0B2
:1039400010BD00000004024000540040801A060030
:103950008007C00E01F0030140EA4111042000F08D
:103960008FB8000010B54FF4807421462C48FCF746
:10397000DDFCFFF7A1FF0021084600F081F808B147
:10398000012010BD02200021FDF79AFA1B21012021
:1039900000F076F808B1022010BD4FF4D871022073
:1039A00000F06EF808B1032010BD6C21032000F078
:1039B00067F808B1042010BD0021062000F060F86F
:1039C00008B1052010BD10212B2000F059F808B1D6
:1039D000062010BD21462F2000F052F808B1072024
:1039E00010BD2146302000F04BF808B1082010BD72
:1039F0000221312000F044F808B1092010BD08214F
:103A00000A2000F03DF808B10A2010BD08210E2060
:103A100000F036F808B10B2010BD002010BD0000EA
:103A2000CC81001010B502460A2000F01FF812B138
:103A300040F0200101E020F02001BDE810400A2004
:103A400000F01EB810B50024002800D0012419B1E0
:103A500044F0020040F014042146322000F010F837
:103A60002146BDE81040332000F00AB8802803D278
:103A7000024931F81000704700207047CC810010D7
:103A80002DE9F04706460F464FF6FF7844463E4D77
:103A90004FF4003949462846FDF714FE10B1641E64
:103AA000601CF7D164B101212846FDF7F3FD4446BF
:103AB000DFF8D89028464946FDF798FD18B105E093
:103AC0000120BDE8F087641E601CF3D174B12C4660
:103AD000002234212046FDF76DFE4546DFF8B09008
:103AE00020464946FDF782FD30B108E00121284615
:103AF000FDF7DCFD0220E4E76D1E681CF0D195B1F6
:103B0000C7F3002040EA4600C1B22046FDF75BFE45
:103B10004546DFF87C90A9F1020949462046FDF7A9
:103B200065FD30B108E001212046FDF7BFFD03200F
:103B3000C7E76D1E681CF0D17DB12546F9B2284655
:103B4000FDF741FE4446DFF8488008F1020841468F
:103B50002846FDF74BFD30B108E001212046FDF776
:103B6000A5FD0420ADE7641E601CF0D101212846AC
:103B7000FDF79CFD34B1802E02D2064820F8167065
:103B800000209EE705209CE7005400400100030050
:103B900082000700CC8100100FB4054B10B503A9BB
:103BA000044A029800F018F810BC5DF814FB0000FD
:103BB00051520008FC80001002E008C8121F08C122
:103BC000002AFAD170477047002001E001C1121F9E
:103BD000002AFBD1704700002DE9FF4F8DB00F4642
:103BE0000546002606E025280BD0DDE90F12904798
:103BF0006D1C761C28780028F5D111B03046BDE840
:103C0000F08F0024A246A1460122E94900E00443C6
:103C100015F8013F203B02FA03F00842F7D128785B
:103C20002A2810D06FF02F022878A0F1300109293E
:103C300014D80AEB8A0102EB410144F0020400EBC4
:103C4000010A6D1CF0E701CF5FEA000A03D544F4D6
:103C50000054CAF1000A44F002046D1C28782E2892
:103C600017D115F8010F44F004042A280ED06FF084
:103C70002F022878A0F1300109290AD809EB89011F
:103C800002EB410100EB01096D1CF2E757F8049BC0
:103C90006D1C28786C280FD006DC4C2817D06828BB
:103CA0000DD06A2814D104E0742810D07A280FD1DE
:103CB0000DE044F400140AE044F4801401E044F4FC
:103CC00040146978814202D104F580146D1C6D1C8A
:103CD00028786E281ED00CDC632830D004DC002845
:103CE0008BD0582811D19FE0642867D069280CD167
:103CF00064E073282DD004DC6F2872D0702804D1C2
:103D000094E075286ED078286DD0DDE90F129047C9
:103D1000761C4BE1C4F30250022806D0032809D0D8
:103D2000042801CF09D0066040E101CFF117C0E9B6
:103D300000613BE101CF068038E1067036E117F8FB
:103D4000040B8DF8000000208DF80100EB460120E7
:103D500003E057F804BB4FF0FF3061074FF000015C
:103D600002D40DE008F10101884649450FDA80458B
:103D7000F8DB1BF808100029F4D108E008F1010174
:103D800088468142FADB1BF808100029F6D1DDE9EC
:103D90000F23AAEB08008146214600F031F9304498
:103DA00000EB080604E0DDE90F121BF8010B904759
:103DB000B8F10108F7D221464846F2E00A21C4F3DF
:103DC00002524FF0000B0891022A04D001CFC11714
:103DD000032A09D00AE0FF1D27F00707F7E80201D0
:103DE00008E02CE01EE01FE000B2C117042A01D158
:103DF00040B2C117021E71F1000206DA0023D0EBB7
:103E0000030063EB01012D2202E0220504D52B22E1
:103E10008DF82420012203E0E20701D02022F7E7F9
:103E2000904653E00A210BE0102109E010214FF0E9
:103E3000000B44F004044FF00809089103E0082146
:103E40004FF0000B0891C4F30252022A04D001CFB4
:103E50000021032A06D006E0FF1D27F00707F7E838
:103E6000020103E080B2042A00D1C0B24FF0000882
:103E700022072BD52A78702A07D0DDF820C08CF0D5
:103E8000100C5CEA0B0C05D00EE040228DF82420CB
:103E9000012208E050EA010306D030238DF82430D7
:103EA0008DF8252002229046089B83F0080353EAF0
:103EB0000B030BD150EA010201D1620706D5302273
:103EC0008DF824204FF00108A9F101092A78582A19
:103ED00004D038A20B9208AA0A920BE03AA2F9E7A2
:103EE0005B46089AFCF7D8F90B9B9B5C0A9A521E1A
:103EF0000A92137050EA0102F2D10A98ADEB000069
:103F000000F1200B600702D524F4803401E04FF06B
:103F10000109D94502DDA9EB0B0000E0002000EB10
:103F20000B0141440890AAEB010AE00306D4DDE945
:103F30000F232146504600F063F806444FF0000975
:103F400008E009A911F80900DDE90F12904709F10D
:103F50000109761CC145F4DBE0030CD5DDE90F2334
:103F60002146504600F04CF8064404E0DDE90F120B
:103F700030209047761C0899481E08900029F5DCEF
:103F800008E00A980A990078491C0A91DDE90F12A5
:103F90009047761CBBF10001ABF1010BF1DC21462F
:103FA0005046DDE90F2300F019F806446D1C21E6A8
:103FB00009280100303132333435363738396162FF
:103FC00063646566000000003031323334353637C3
:103FD0003839414243444546000000002DE9F04194
:103FE000044600251E461746880404D405E03946D9
:103FF0002020B0476D1C641EF9D52846BDE8F0812D
:104000002DE9F041044600251E469046C80301D51F
:10401000302700E02027880404D505E041463846D3
:10402000B0476D1C641EF9D52846BDE8F08100003C
:1040300070B5044600202071401E2062204601F029
:1040400083FC08B1042070BD04F2322001F078FA3C
:10405000054694F834004AF65526EB2803D0E928A3
:1040600001D0E82841D1B54206D1082222A104F1AD
:104070008600FCF770F9A8B304F13F0001F060FA84
:1040800094F84110421E10422FD14FF4007290421A
:104090002BD3904229D841B3481E014225D104F1C7
:1040A000420001F04DFA00B394F84400401E01288C
:1040B0001BD804F1450001F043FAB0B104F1470008
:1040C00001F03EFA802806D204F1540001F03DFAD6
:1040D000B0F5803F09D304F14A0001F031FA20B174
:1040E000002070BDFFE70020FBE7B54201D10220B0
:1040F000F7E70320F5E70000464154333220202043
:10410000000000000368826A121D480A5989B0FB4A
:10411000F1F002CA21B1884204D211680844704704
:1041200000207047401A121DF3E7891E8269921E13
:104130008A4201D800207047026B408900FB0120B1
:10414000704700002DE9F0478146884608F11A00C3
:1041500001F0F6F910B10020BDE8F08798F80000F2
:1041600000F03F00401E00EB800101EBC00401277E
:104170000025DFF860A01AF80500404401F0E0F9DE
:1041800006468FB1FF2C0BD8304600F0A5FF07463E
:104190002046641C39F8100000F09EFF874201D0D1
:1041A0000020D9E7374605E0A6F57F40FF3801D06B
:1041B0000020D1E76D1C0D2DDDD398F800004006DE
:1041C00005D527B139F8140008B10020C4E7012053
:1041D000C2E70000C07700082DE9F04180460F4695
:1041E000D8F80050002F08D03946404601F0B2F808
:1041F000022809D20120BDE8F0812E6916B1A86914
:10420000B04207D8012605E0411CF4D0A9698142DB
:10421000F1D83E466869D0B10024BE4215D1741C65
:10422000A869A04200D802242146404601F092F835
:104230000128E0D0411CDED038B12869022803D320
:10424000A969814200D90646002414B118E0002073
:10425000D1E73446641CA869A04204D80224022E87
:1042600001D20020C7E72146404601F073F838B17B
:104270000128C0D0411CBED0B442EBD10020BAE727
:104280004FF0FF3632462146284602F01EF828B984
:1042900027B122463946284602F017F820B10128F6
:1042A00011D001242046A6E72C6168690028F9D0C6
:1042B000A969891E8842F5D8401E6861687940F076
:1042C00001006871EEE73446ECE700002DE9F34F9A
:1042D00081B00E463068009001980068D0F80CA0BC
:1042E0000024684602F0CCFA411C18D0B0F5803F9B
:1042F00004D3020C2146641C2AF8112085B2202D1B
:104300000FD32F2D0DD05C2D0BD0802D0DD2294633
:1043100074A0FCF716F840B10620BDE8FE8F062019
:10432000FBE7202D0CD2042516E0FF2C01D306203C
:10433000F3E72046641C2AF81050D2E7401C009096
:10434000009801782F29F9D05C29F7D00025009832
:104350000078202800D204250098306007E0601E15
:104360003AF81000202801D02E2802D1641E002C1B
:10437000F5D100202AF814000CB1002702E0062035
:10438000CBE77F1C3AF817002028FAD01FB9BAF8FB
:1043900000002E2803D145F0030500E0641E24B17F
:1043A000601E3AF810002E28F8D1019820220B2127
:1043B0002030FBF7B4FF4FF00008C1464FF0080B68
:1043C00038467F1C3AF8106006B3202E03D02E2EFC
:1043D00004D1A74202D045F00305F1E7D84501D248
:1043E000A74219D1BBF10B0F0ED0A74201D045F067
:1043F00003050BD827464FF008084FF00B0B4FEA88
:1044000089604FEA1069DBE745F00305019890F8F1
:104410002000E5283FD042E0802E09D345F0020578
:10442000304600F059FE4FF46A7100F029FE06464E
:10443000FF2E10D9ABF10100804503D345F00305F1
:10444000D846BDE7019940460844320A08F1010800
:1044500080F8202017E026B1314625A0FBF771FF38
:1044600018B15F2645F003050DE0A6F141001928BB
:1044700001D849F00209A6F16100192803D849F0D2
:104480000109203EB6B201994046084408F10108EE
:1044900080F8206094E70198052180F82010BBF196
:1044A000080F03D14FEA89604FEA1069C9F3810010
:1044B000032803D06FEA0900800701D145F0020507
:1044C000A80709D45FEAC97001D045F010055FEA7A
:1044D000497001D545F00805019880F82B5000205F
:1044E0001BE700002A3A3C3E7C223F7F0000000090
:1044F0002B2C3B3D5B5D0000812803D3FE2801D8B7
:10450000012070470020704700F098BD2DE9F04170
:1045100005460E462F680021284600F0D6F988B9D6
:1045200000243846A96901F00FFA58B9E9690A78F8
:10453000E52A0CD05AB100240121284600F0CEF81B
:104540000028EED0042800D10720BDE8F081641CCB
:10455000B442F7D0F0E72DE9F04705460C4628466F
:1045600002F06AF910B10120BDE8F0872146284623
:10457000FFF7DBFD06462E624FF4007805F13400AC
:1045800041468146FBF7D2FE68894FF40044B4EB04
:10459000402F00D94402002700E06408444504D9B4
:1045A000204600F069FD071EF7D0444517D9214683
:1045B0003846FBF7BBFE4FEA5428002400E0444491
:1045C0006889A04207D9321968784346394600F015
:1045D00012FA0028F3D0384600F050FD0EE0012713
:1045E000002400E03C446889A04207D93219687869
:1045F0003B46494600F0FFF90028F3D06889A04205
:1046000001D00120B0E70020AEE72DE9F0470446D5
:10461000D4F800A00021204600F057F900285BD113
:10462000FF26B0464FF0FF39C4F82C905046A169E0
:1046300001F08AF9074638004DD1E06905786DB17F
:10464000C17A01F03F01A171E52D03D00A0707D51A
:104650000F2905D0FF26C4F82C9035E004273AE056
:104660000F2901D0F6B121E094F82B1049062BD484
:10467000690606D505F0BF052E462169E16290F86E
:104680000D80B5420BD1417B414508D1DAF80C20B1
:1046900001461046FFF756FD08B1761E00E0FF26E2
:1046A000F6B211E002F074F8404514D094F82B00F3
:1046B000C00706D10B2204F12001E069FBF74BFE95
:1046C00048B1FF26C4F82C900021204600F006F8DF
:1046D00007463800AAD03846BDE8F0872DE9F047F4
:1046E000044689462768266920364FF00008B6F54B
:1046F000001F01D3C4F81880A06910B1F10503D0E0
:1047000047E00420BDE8F087401CA061616929B141
:104710007889401E10EA562F08D03AE03889B0EB6D
:10472000561F36D8C4F818800420EBE7204600F066
:1047300011FE0546012D01D80220E3E7681C16D0C2
:10474000B869A8421FD8B9F1000F12D0204661699C
:10475000FFF742FD054685B1012D10D0681C10D031
:1047600029463846FFF7F7FE68B10120CAE7012065
:10477000C8E7C4F818800420C4E70720C2E7022075
:10478000C0E70120BEE7656129463846FFF7CDFC4A
:10479000A0612661C6F3080038443430E06100208F
:1047A000B0E72DE9FE430446266894F82B0010F08C
:1047B000A00F02D00620BDE8FE830027F06800E0CD
:1047C0007F1C30F817100029FAD1D4E90912206AA9
:1047D0008DE807009DF80B0004F12008C00718D0F1
:1047E000402084F82B000125ABB269464046F268B0
:1047F00000F05EFD2046FFF708FF10B96D1C642D28
:10480000F2D3642D0FD00428D5D19DF80B0084F885
:104810002B009DF80B00800707D50C370D20B7FB48
:10482000F0F77F1C02E00720C5E701273946204644
:10483000FFF76CFE05464FF001093DBB7F1E25D0FA
:104840002069794200EB4111204600F03EF8054610
:1048500028001BD1404601F09BFF80463046A169ED
:1048600001F072F80546280010D1FAB2E16943461A
:10487000F06801F0A7FD86F8049000212046FFF7BC
:104880002DFF0546280001D17F1EE7D1DDB9304656
:10489000A16901F059F80546280014D154F81C0FFD
:1048A0002021FBF743FD206861680160A168416039
:1048B000A1890181A17B8172E07B216800F0180051
:1048C000087386F80490284675E72DE9F0410646FE
:1048D0000D463768B5F5001F01D2E80602D0022068
:1048E000BDE8F0813561B4681CB93878032800D37D
:1048F000FC6A1CB178894FEA40281AE03889B0EB8D
:10490000551F01D80220EBE7F86AB06118E0214694
:10491000304600F01FFD0446601C06D0022C02D376
:10492000B869A04203D80220DAE70120D8E7A5EB56
:1049300008054545EBD221463846FFF7F6FBB06146
:104940007461B06948B100EB5520B061C5F308004F
:1049500038443430F0610020C2E70220C0E710B5CF
:10496000002803D0012803D0012010BD084610BD47
:10497000FEF78AF808B1012010BD002010BD0146E5
:104980000420002901D00129FFD070477CB5002800
:1049900003D0012803D004207CBD08467CBD4FF421
:1049A0000070CDE90003520200230846FEF758FBD1
:1049B000FEF712FC05464FF4FA6400E0641EFDF7B2
:1049C000A0FF08B1002CF9D104B929250DB10120AF
:1049D0007CBD00207CBD10B5002803D0012803D089
:1049E000012010BD084610BDFDF78BFF08B1012066
:1049F00010BD002010BD1CB5002803D0012803D035
:104A000004201CBD08461CBD4FF40070CDE9000316
:104A1000520200230846FEF747FCFEF711FC04464D
:104A2000FDF76FFF0028FBD10CB101201CBD002059
:104A30001CBD000002F07EFC454C2061E060454D4D
:104A4000A4F12806DFF810810027FCF7DBFC002822
:104A5000FBD1A87868B1A868E968884209D13FA06D
:104A60006168FFF799F8FBF765FFAF700320E87006
:104A7000EBE7E87830B102F05DFCE0600A2002F07C
:104A800041F8E2E7A968E868814203D1012002F019
:104A900039F8DAE7206880BB606880B1308900B9F6
:104AA00019204FF47A72B2FBF0F0A0FB0201002350
:104AB000FBF7F2FB014626480C3002F0FFFBB28800
:104AC000C2F5A07000EBD0704010F388C3F5F07110
:104AD00001EBD1714910002800DA0020002900DA2A
:104AE0000021A1F1010C6344A0F1010C62449BB2CE
:104AF00092B289B280B2FEF71DFDE86800F00100B5
:104B0000C0EB4021C1EB403008EB80095FEA8970BF
:104B100003D0494616A0FFF73FF84FF4F04050F895
:104B2000090041084846FDF767F9E868401CE8605D
:104B30002068401C20607189884206D32760606825
:104B4000401C6060A068401CA060FDF71DFB7CE776
:104B5000C8DC0010CC80001000600020446F6E653F
:104B60003A20256C75206672616D65730D0A000030
:104B7000556E616C69676E65642120616464723D85
:104B80003078253038580D0A0000000038B504464A
:104B9000204600F0E3F9002807D16946204602F0DC
:104BA000B9F8002801D10021216038BD37B582B0A5
:104BB00015460398019001A800F02EFC002802DAA7
:104BC0000B2005B030BD0D4B53F82010002411B15F
:104BD00043F820400C70029939B1084A921F12F82C
:104BE00010204A700C7043F820102DB1002202A949
:104BF00003A800F083FDE4E70020E2E72080001036
:104C00002DE9F74F8EB00546002D0BD002F03F0680
:104C1000324601A90FA800F071FD04464FF00008CC
:104C200024B1D8E0092011B0BDE8F08F01982860C8
:104C3000019802904FF40079484600F01DFA0746AB
:104C4000380009D00198C76002A80F9900F0C3FA94
:104C50000446200002D006E01120E4E79DF833006E
:104C6000000600D5062416F01C0F4FD044B1042CCA
:104C700003D102A8FFF795FD044646F0080609E0B7
:104C8000700701D5082405E09DF80E0010F0110F03
:104C900000D00724CCBB300744D5DFF848A10998E1
:104CA00051460E3001F058FD09985146163001F07A
:104CB00053FD0999019800F053FC82460999202080
:104CC000C87200220999019801F04EFD099800214F
:104CD0001C3001F041FD019801210171BAF1000F72
:104CE00020D0D0F820B00022514602A801F0F4FCF8
:104CF0000446200016D15946019800F025FE0446CE
:104D00000198AAF1010AC0F810A00BE054B99DF86F
:104D10000E00C10601D5042404E0B10702D5C00786
:104D200000D0072444B9300701D546F04006019869
:104D3000006A286209986862F4BB0999019800F03A
:104D40000FFCA86009981C3000F0FFFBE860C5F874
:104D500028800198C088A8802E7485F81180C5F835
:104D60001C80C5F81480494605F12C008146FBF7EC
:104D7000DDFAB0062CD5EE68F6B16E610198408977
:104D80004FEA402AA9680BE0284600F0E3FA014602
:104D9000012900D80224481C00D10124A6EB0A06F0
:104DA0000CB95645F0D8A96134B9F00510D0019876
:104DB000FFF7BBF9A0B100E00AE000EB5622EA6180
:104DC0000198012349464078FFF7E0FD00B1012436
:104DD000384600F053F90CB1C5F80080204622E7B0
:104DE0000224F5E70000215C2DE9FC5F04460F4634
:104DF000164698460020C8F800006946204601F093
:104E000089FF002812D1607C00280FD1207CC007C8
:104E10000BD06169E068401A864200D9064604F169
:104E20002C004FF00109019092E00720BDE8FC9FA3
:104E30006169C80574D100984089401E00EA512A72
:104E4000BAF1000F14D129B1A06A28B12046FFF7AA
:104E500059F905E0A06803E02046A16900F07AFA5C
:104E6000022802D202206074E0E7411C1CD0A0613D
:104E7000A1690098FFF759F9D0B100EB0A0B750A48
:104E800055B300980AEB050241898A4201D9A1EB8A
:104E90000A0540782B465A463946FFF777FD50B150
:104EA00084F811900120C1E784F811900120BDE73A
:104EB00002206074BAE7207C00060BD5E069A0EB05
:104EC0000B00A84206D207EB40204FF40072019974
:104ED000FBF713FA6D0231E0E2695A451ED0207CDF
:104EE00000060ED50098012301994078FFF783FD55
:104EF00018B184F81190012098E7207C00F07F0021
:104F00002074009801235A4640780199FFF73EFD2E
:104F100020B184F81190012088E701E0C4F81CB0AA
:104F2000A08AC0F30800C0F50075B54200D9354627
:104F300001192C312A463846FBF7DFF9761BD8F8E1
:104F400000002844C8F800002F44606928446061CC
:104F5000002E7FF46DAF002068E7000038B50446EE
:104F60006946204601F0D6FE00280ED1217C4A0673
:104F70000BD508060ED50098E2690123407804F1AC
:104F80002C01FFF738FD08B1012038BD207C00F06E
:104F90007F002074216A009800F0D6FC0028F4D12C
:104FA000656AE87A40F02000E8722946A268206825
:104FB00001F0DAFB05F11C00E16801F0CDFB0A49C4
:104FC00005F1160001F0C8FB002105F1120001F007
:104FD000BFFB00980121017101F0E8FB217C01F089
:104FE000BF01217438BD00000000215C70B5064689
:104FF00007A000F023F81C24064D26FA04F000F068
:105000000F00285C00F008F8241F002CF5DA70BDB2
:10501000307800009523030870B50546064C8021C2
:105020002046FEF76BFB0028F9D029462046BDE854
:105030007040FEF7EDBB00000010014010B50446C3
:1050400002E0641CFFF7E8FF20780028F9D110BDCA
:1050500010B50C46FFF7F2FF05A0FFF7EFFF204663
:10506000FFF7C4FFBDE8104002A0FFF7E7BF000054
:10507000203D20000D0A000001F0DEB901F0F0BC77
:10508000F0B50024802801D284B221E0B0F5803F41
:105090001ED2B1F56A7F1BD186B20E4D45F2205368
:1050A00000221021981A02EB500035F82070B74208
:1050B00007D001D2024600E00346A1F10101002918
:1050C000F0D129B14FF0010101EB400035F810405B
:1050D0002046F0BDCE77000830B5B0F5803F1FD236
:1050E00080B2B0F5805F01D21E4900E01E4931F860
:1050F000022B002A14D0904212D331F8023B1C0A32
:10510000DBB2D518854228D9092C09D2DFE804F092
:1051100005090F1215181B1E2100801A31F8100006
:1051200030BD811A01F00101401A80B230BD103843
:1051300080B230BD203880B230BD303880B230BD52
:105140001A3880B230BD083080B230BD503880B2DD
:1051500030BDA0F5E35080B230BD002CC7D101EBCB
:105160004301C4E7D6200308C82203082DE9FF4104
:1051700007460E4600213846FEF75AFF022803D0A4
:10518000032804D2002E02D0042E03D9032004B039
:10519000BDE8F0810024E84607EB041000F5FD703F
:1051A00000F0D3F948F82400641C042CF4D30EB1A9
:1051B000751E00E0002558F8251019B13846FEF795
:1051C00037FF00E00320002EE1D10228DFD36D1C61
:1051D000042DF0D3DBE773B50446266801E0491CD3
:1051E0000191019908782F28F9D05C28F7D0002088
:1051F000A06001980078202807D2802084F82B0036
:1052000000212046FFF761FB7CBD01A92046FFF786
:105210005DF80028F8D194F82B502046FFF7F5F9F7
:1052200028B10428F0D16907EED405207CBD6907B8
:10523000FCD4A079C00601D405207CBD208AC0F32F
:10524000080081193431304600F08AF9A060DCE7AB
:105250002DE9F0410646144D6868002806D002F09A
:105260005BF8022802D1EFF30580D8B1002424B105
:105270004FF0FF31686801F035FF0C4FF1B238464E
:10528000FEF7C6FA80213846FEF738FA0028F9D032
:105290002CB100231A461946686801F01BFE3046FF
:1052A000BDE8F0810124E2E7108000100010014009
:1052B0002DE9FC410646086830604868706008893E
:1052C0003081887AB072052B12D9214D0CE0921CE6
:1052D000002418460B4660F35F034908D80300D545
:1052E0006B40641C102CF4D311880029EFD19BB2C1
:1052F00007256F4603F00F0130311B09392901D909
:10530000C91DC9B228466D1E39540DB1002BF1D10B
:105310007E2078550024A5F1010806E0FFF7ECF89F
:1053200010B1444506D0641C641CAC4202D2305D0E
:105330002028F3D1082D03D228466D1C385C00E0EC
:1053400020202146641C7054082CF3D3BDE8FC8156
:10535000211001002DE9F0470D460468022D02D30B
:10536000A069A84201D8012609E04FF0FF36207855
:10537000012807D002282CD003283AD00126304635
:10538000BDE8F08705EB5507A06A00EB57212046E2
:1053900000F0DAFA0028F2D1C7F30800204407F140
:1053A000010890F83490A06A00EB5821204600F0E4
:1053B000CBFA0028E3D1C8F30800204490F8340069
:1053C00049EA0020E90701D00609D8E7C0F30B0637
:1053D000D5E7A06A00EB1521204600F0B5FA0028B9
:1053E000CDD1E8B204EB4000343000F0A9F8064615
:1053F000C5E7A06A00EBD511204600F0A5FA002809
:10540000BDD140F2FF1000EA85002044343000F0A6
:105410009CF820F07046B2E730B5044621680A4691
:105420004FF0FF35002A01D1284630BD11F8010B9D
:10543000202801D33A28F9D13A2801D0002030BDE4
:1054400002201378303B092B03D8921C8A4200D1EA
:105450001846022801DB284630BD216030BD00001F
:1054600010B5104A002808D001280FD0042110469A
:10547000FBF7BCFF98B1002010BD10211046FBF7D0
:10548000B5FF08B1002010BD012010BD0821104655
:10549000FBF7ACFF08B1002010BD012010BD0120BA
:1054A00010BD000000100240FCF792FC0024DFF861
:1054B000809009F106052046FFF7D2FF09F80400A5
:1054C0002855641CE4B2032CF5D3194F4FF00008A3
:1054D000FF1C012624E02046FFF7C2FF19F8041044
:1054E000814202D107F8048013E0395D491CC9B23A
:1054F000395503290DD307F8048009F80400012861
:1055000006D1295D21B96CB1012C0ED009490E706C
:105510002855641CE4B2032CDDD30A2001F0F2FA12
:105520000024D8E704490E70F2E704490E70EFE753
:1055300040800010D1800010D3800010D280001075
:105540004178007840EA01207047C178827842EAC9
:105550000121427842EA0121007840EA01207047A7
:1055600070B506460D4605F11A00FFF7E9FF04463F
:105570003078032805D105F11400FFF7E1FF44EA74
:105580000044204670BD00001CB5FCF7AAFC4FF497
:10559000E130FEF749F8FEF73BF8FCF719FCFEF79F
:1055A00029F84FF47840002100904FF4F0734FF445
:1055B000A0720846FDF7FEFF23A0FEF7EDFAFCF708
:1055C0005FFC014624A0FEF7E7FA3220FBF7E6F87D
:1055D00008B125A100E026A126A0FEF7DDFA4FF4D0
:1055E000FA700021FBF76CFC012001F0E5FB264975
:1055F0000861002824D000200421CDE900100346D2
:105600008A0122A1234801F035FE1F4803211430EE
:10561000CDE900100023C0221FA1224801F02AFE7C
:10562000194802211830CDE90010002380221EA164
:105630001F4801F01FFE01F005FB1EA0FBF7BEFD99
:1056400024A0FBF7BBFD0000496E69742E2E2E20AE
:1056500046573A31370D0A005344206D6F756E740A
:105660003A2025640D0A00004641494C0000000024
:105670004F4B0000417564696F20696E69743A2070
:1056800025730D0A00000000CC8000106B65797353
:1056900000000000A95400087265616463617264CF
:1056A0000000000021650008646973706C61790076
:1056B000354A00085363686564756C6572207265CD
:1056C0007475726E656420756E6578706563746557
:1056D000646C79004D7574657820637265617465DA
:1056E000206661696C3A206865617020696E737527
:1056F0006666696369656E74000000002DE9F0411B
:105700000E4617464FF00008C6F80080FFF784FEEB
:105710000546280002D50B20BDE8F081854850F8E9
:10572000254094B1346007F0FE06207820B16078FF
:10573000FFF751F9C1070AD084F800806078FFF7BD
:105740000EF9C1070AD00320E6E70C20E4E71EB1FA
:10575000400701D50A20DFE70020DDE71EB1400742
:1057600001D50A20D8E77348801F00EB4500417837
:105770002046FFF7FBFC042803D0022803D30D20AA
:10578000CAE70120C8E7266A04F13F00FFF7D8FE08
:10579000B0F5007F01D00D20BEE704F14A00FFF70D
:1057A000CFFE18B904F15800FFF7CFFEE06194F87E
:1057B0004470E770012F03D0022F01D00D20ABE71A
:1057C000474394F84100608110B1411E084201D066
:1057D0000D20A1E704F14500FFF7B2FE208100078C
:1057E00001D00D2098E704F14700FFF7A9FE054618
:1057F000280004D104F15400FFF7A7FE054604F188
:105800004200FFF79DFE014639B12389C81900EB1C
:105810001312954203D20D207EE70D207CE7A81AD3
:105820006589B0FBF5F060B30025DFF80CC1604579
:1058300000D803254FF6F57C604500D8022540F6D8
:10584000F57C604500D80125EDB1801CA061666241
:105850003144A16232442263032D16D043B339444C
:10586000E162022D26D000F0010100EB400001EBC7
:105870005000E16900F2FF10B1EB502F1CD20D2057
:105880004AE70D2048E70D2046E704F15E00FFF7E8
:1058900057FE08B10D203FE7208908B10D203BE7F6
:1058A00004F16000FFF751FEE062A0698000E0E7CC
:1058B0000D2031E74000DCE74FF0FF3060612061F0
:1058C00080206071032D2BD104F16400FFF738FEB6
:1058D000012825D1711C204600F036F800BB84F861
:1058E000058004F13400FFF730FE1449884217D1D7
:1058F00004F50670FFF729FE1149884210D104F51E
:105900000C70FFF722FE0F49884209D104F5077099
:10591000FFF71BFE606104F50870FFF716FE2061BB
:105920002570044908390888401C0880E080002060
:10593000F2E6000020800010F5FFFF0F5252614197
:1059400072724161000055AA70B504460E460025EA
:10595000206AB04210D0204600F06EFF05465DB9C7
:1059600060780123324604F13401FFF70FF810B1DB
:105970004FF0FF3601252662284670BD2DE9F0471D
:10598000044689461E4DEE686F6BD5F8388029684D
:10599000002081F84A002868001D00F0C1FF601C4B
:1059A00017D1B9F1000F14D0164948682A689060E1
:1059B00083682A68D3602A688368121D5A602A683F
:1059C000121D8260286841610868401C0860BDE8BB
:1059D000F087344428684460B44206D229684046BF
:1059E000BDE8F047091D01F009B829683846091DCE
:1059F00001F004F8A86A8442E9D2AC62E7E700004B
:105A000058800010508B001070B5044601F00EF85D
:105A1000244DA868401CA860286810B1686938B196
:105A20000CE02C60A868012808D100F021FA05E0FC
:105A30002868E16AC06A884200D82C60686A401C05
:105A40006862E06A2969884200D92861164AC0EB79
:105A5000C00002EB80004068A0608168E16083685C
:105A6000211D59608160E06AC0EBC00002EB80013B
:105A7000616152F82010491C42F8201000F0E4FF48
:105A8000686900280CD02868E16AC06A884207D299
:105A900006494FF080500860BFF34F8FBFF36F8F00
:105AA00070BD0000588000107C87001004ED00E0FD
:105AB00038B500F0BBFF0E4C2068A8B90D4800F0C7
:105AC0008DFF0C481C3000F089FF0A48E0601C3054
:105AD0002061084B0020FC3B009003F15C02102188
